{
    "_format": "hh-sol-artifact-1",
    "contractName": "BuyMeACoffee",
    "sourceName": "contracts/BuyMeACoffee.sol",
    "abi": [
        {
            "inputs": [],
            "stateMutability": "nonpayable",
            "type": "constructor"
        },
        {
            "anonymous": false,
            "inputs": [
                {
                    "indexed": true,
                    "internalType": "address",
                    "name": "from",
                    "type": "address"
                },
                {
                    "indexed": false,
                    "internalType": "string",
                    "name": "name",
                    "type": "string"
                },
                {
                    "indexed": false,
                    "internalType": "string",
                    "name": "message",
                    "type": "string"
                },
                {
                    "indexed": false,
                    "internalType": "uint256",
                    "name": "timestamp",
                    "type": "uint256"
                }
            ],
            "name": "NewMemo",
            "type": "event"
        },
        {
            "inputs": [
                {
                    "internalType": "string",
                    "name": "_name",
                    "type": "string"
                },
                {
                    "internalType": "string",
                    "name": "_message",
                    "type": "string"
                }
            ],
            "name": "buyCoffee",
            "outputs": [],
            "stateMutability": "payable",
            "type": "function"
        },
        {
            "inputs": [],
            "name": "getMemos",
            "outputs": [
                {
                    "components": [
                        {
                            "internalType": "address",
                            "name": "from",
                            "type": "address"
                        },
                        {
                            "internalType": "string",
                            "name": "name",
                            "type": "string"
                        },
                        {
                            "internalType": "string",
                            "name": "message",
                            "type": "string"
                        },
                        {
                            "internalType": "uint256",
                            "name": "timestamp",
                            "type": "uint256"
                        }
                    ],
                    "internalType": "struct BuyMeACoffee.Memo[]",
                    "name": "",
                    "type": "tuple[]"
                }
            ],
            "stateMutability": "view",
            "type": "function"
        },
        {
            "inputs": [
                {
                    "internalType": "uint256",
                    "name": "",
                    "type": "uint256"
                }
            ],
            "name": "memos",
            "outputs": [
                {
                    "internalType": "address",
                    "name": "from",
                    "type": "address"
                },
                {
                    "internalType": "string",
                    "name": "name",
                    "type": "string"
                },
                {
                    "internalType": "string",
                    "name": "message",
                    "type": "string"
                },
                {
                    "internalType": "uint256",
                    "name": "timestamp",
                    "type": "uint256"
                }
            ],
            "stateMutability": "view",
            "type": "function"
        },
        {
            "inputs": [],
            "name": "owner",
            "outputs": [
                {
                    "internalType": "address payable",
                    "name": "",
                    "type": "address"
                }
            ],
            "stateMutability": "view",
            "type": "function"
        },
        {
            "inputs": [],
            "name": "withdrawTips",
            "outputs": [],
            "stateMutability": "nonpayable",
            "type": "function"
        }
    ],
    "bytecode": "0x608060405234801561001057600080fd5b50336000806101000a81548173ffffffffffffffffffffffffffffffffffffffff021916908373ffffffffffffffffffffffffffffffffffffffff16021790555061107a806100606000396000f3fe60806040526004361061004a5760003560e01c8063204206e11461004f5780633aaa74b21461006b578063865c5172146100825780638da5cb5b146100ad578063e8dfdf04146100d8575b600080fd5b6100696004803603810190610064919061085a565b610118565b005b34801561007757600080fd5b50610080610292565b005b34801561008e57600080fd5b50610097610389565b6040516100a49190610ad7565b60405180910390f35b3480156100b957600080fd5b506100c261056c565b6040516100cf9190610b1a565b60405180910390f35b3480156100e457600080fd5b506100ff60048036038101906100fa9190610b61565b610590565b60405161010f9493929190610bf6565b60405180910390f35b6000341161015b576040517f08c379a000000000000000000000000000000000000000000000000000000000815260040161015290610c95565b60405180910390fd5b600160405180608001604052803373ffffffffffffffffffffffffffffffffffffffff16815260200184815260200183815260200142815250908060018154018082558091505060019003906000526020600020906004020160009091909190915060008201518160000160006101000a81548173ffffffffffffffffffffffffffffffffffffffff021916908373ffffffffffffffffffffffffffffffffffffffff16021790555060208201518160010190816102199190610ec1565b50604082015181600201908161022f9190610ec1565b506060820151816003015550503373ffffffffffffffffffffffffffffffffffffffff167fd42e89b4c5fbb2f2d060a3f55bf87f221232809d3b09e1833bd8f7e03227558083834260405161028693929190610f93565b60405180910390a25050565b60008054906101000a900473ffffffffffffffffffffffffffffffffffffffff1673ffffffffffffffffffffffffffffffffffffffff163373ffffffffffffffffffffffffffffffffffffffff1614610320576040517f08c379a000000000000000000000000000000000000000000000000000000000815260040161031790611024565b60405180910390fd5b60008054906101000a900473ffffffffffffffffffffffffffffffffffffffff1673ffffffffffffffffffffffffffffffffffffffff166108fc479081150290604051600060405180830381858888f19350505050158015610386573d6000803e3d6000fd5b50565b60606001805480602002602001604051908101604052809291908181526020016000905b8282101561056357838290600052602060002090600402016040518060800160405290816000820160009054906101000a900473ffffffffffffffffffffffffffffffffffffffff1673ffffffffffffffffffffffffffffffffffffffff1673ffffffffffffffffffffffffffffffffffffffff16815260200160018201805461043690610ce4565b80601f016020809104026020016040519081016040528092919081815260200182805461046290610ce4565b80156104af5780601f10610484576101008083540402835291602001916104af565b820191906000526020600020905b81548152906001019060200180831161049257829003601f168201915b505050505081526020016002820180546104c890610ce4565b80601f01602080910402602001604051908101604052809291908181526020018280546104f490610ce4565b80156105415780601f1061051657610100808354040283529160200191610541565b820191906000526020600020905b81548152906001019060200180831161052457829003601f168201915b50505050508152602001600382015481525050815260200190600101906103ad565b50505050905090565b60008054906101000a900473ffffffffffffffffffffffffffffffffffffffff1681565b600181815481106105a057600080fd5b90600052602060002090600402016000915090508060000160009054906101000a900473ffffffffffffffffffffffffffffffffffffffff16908060010180546105e990610ce4565b80601f016020809104026020016040519081016040528092919081815260200182805461061590610ce4565b80156106625780601f1061063757610100808354040283529160200191610662565b820191906000526020600020905b81548152906001019060200180831161064557829003601f168201915b50505050509080600201805461067790610ce4565b80601f01602080910402602001604051908101604052809291908181526020018280546106a390610ce4565b80156106f05780601f106106c5576101008083540402835291602001916106f0565b820191906000526020600020905b8154815290600101906020018083116106d357829003601f168201915b5050505050908060030154905084565b6000604051905090565b600080fd5b600080fd5b600080fd5b600080fd5b6000601f19601f8301169050919050565b7f4e487b7100000000000000000000000000000000000000000000000000000000600052604160045260246000fd5b6107678261071e565b810181811067ffffffffffffffff821117156107865761078561072f565b5b80604052505050565b6000610799610700565b90506107a5828261075e565b919050565b600067ffffffffffffffff8211156107c5576107c461072f565b5b6107ce8261071e565b9050602081019050919050565b82818337600083830152505050565b60006107fd6107f8846107aa565b61078f565b90508281526020810184848401111561081957610818610719565b5b6108248482856107db565b509392505050565b600082601f83011261084157610840610714565b5b81356108518482602086016107ea565b91505092915050565b600080604083850312156108715761087061070a565b5b600083013567ffffffffffffffff81111561088f5761088e61070f565b5b61089b8582860161082c565b925050602083013567ffffffffffffffff8111156108bc576108bb61070f565b5b6108c88582860161082c565b9150509250929050565b600081519050919050565b600082825260208201905092915050565b6000819050602082019050919050565b600073ffffffffffffffffffffffffffffffffffffffff82169050919050565b6000610929826108fe565b9050919050565b6109398161091e565b82525050565b600081519050919050565b600082825260208201905092915050565b60005b8381101561097957808201518184015260208101905061095e565b60008484015250505050565b60006109908261093f565b61099a818561094a565b93506109aa81856020860161095b565b6109b38161071e565b840191505092915050565b6000819050919050565b6109d1816109be565b82525050565b60006080830160008301516109ef6000860182610930565b5060208301518482036020860152610a078282610985565b91505060408301518482036040860152610a218282610985565b9150506060830151610a3660608601826109c8565b508091505092915050565b6000610a4d83836109d7565b905092915050565b6000602082019050919050565b6000610a6d826108d2565b610a7781856108dd565b935083602082028501610a89856108ee565b8060005b85811015610ac55784840389528151610aa68582610a41565b9450610ab183610a55565b925060208a01995050600181019050610a8d565b50829750879550505050505092915050565b60006020820190508181036000830152610af18184610a62565b905092915050565b6000610b04826108fe565b9050919050565b610b1481610af9565b82525050565b6000602082019050610b2f6000830184610b0b565b92915050565b610b3e816109be565b8114610b4957600080fd5b50565b600081359050610b5b81610b35565b92915050565b600060208284031215610b7757610b7661070a565b5b6000610b8584828501610b4c565b91505092915050565b610b978161091e565b82525050565b600082825260208201905092915050565b6000610bb98261093f565b610bc38185610b9d565b9350610bd381856020860161095b565b610bdc8161071e565b840191505092915050565b610bf0816109be565b82525050565b6000608082019050610c0b6000830187610b8e565b8181036020830152610c1d8186610bae565b90508181036040830152610c318185610bae565b9050610c406060830184610be7565b95945050505050565b7f43616e27742062757920636f6666656520666f72206672656521000000000000600082015250565b6000610c7f601a83610b9d565b9150610c8a82610c49565b602082019050919050565b60006020820190508181036000830152610cae81610c72565b9050919050565b7f4e487b7100000000000000000000000000000000000000000000000000000000600052602260045260246000fd5b60006002820490506001821680610cfc57607f821691505b602082108103610d0f57610d0e610cb5565b5b50919050565b60008190508160005260206000209050919050565b60006020601f8301049050919050565b600082821b905092915050565b600060088302610d777fffffffffffffffffffffffffffffffffffffffffffffffffffffffffffffffff82610d3a565b610d818683610d3a565b95508019841693508086168417925050509392505050565b6000819050919050565b6000610dbe610db9610db4846109be565b610d99565b6109be565b9050919050565b6000819050919050565b610dd883610da3565b610dec610de482610dc5565b848454610d47565b825550505050565b600090565b610e01610df4565b610e0c818484610dcf565b505050565b5b81811015610e3057610e25600082610df9565b600181019050610e12565b5050565b601f821115610e7557610e4681610d15565b610e4f84610d2a565b81016020851015610e5e578190505b610e72610e6a85610d2a565b830182610e11565b50505b505050565b600082821c905092915050565b6000610e9860001984600802610e7a565b1980831691505092915050565b6000610eb18383610e87565b9150826002028217905092915050565b610eca8261093f565b67ffffffffffffffff811115610ee357610ee261072f565b5b610eed8254610ce4565b610ef8828285610e34565b600060209050601f831160018114610f2b5760008415610f19578287015190505b610f238582610ea5565b865550610f8b565b601f198416610f3986610d15565b60005b82811015610f6157848901518255600182019150602085019450602081019050610f3c565b86831015610f7e5784890151610f7a601f891682610e87565b8355505b6001600288020188555050505b505050505050565b60006060820190508181036000830152610fad8186610bae565b90508181036020830152610fc18185610bae565b9050610fd06040830184610be7565b949350505050565b7f4f6e6c79206f776e65722063616e207769746864726177000000000000000000600082015250565b600061100e601783610b9d565b915061101982610fd8565b602082019050919050565b6000602082019050818103600083015261103d81611001565b905091905056fea26469706673582212200bae9ee0fb5858ac03378dfea2f038748f2d9976fd403cd1ffd8995357369c7664736f6c63430008140033",
    "linkReferences": {},
    "deployedLinkReferences": {}
}